:020000040000FA
:10000000A8042020D5000000D9000000DB0000007B
:1000100000000000000000000000000000000000E0
:10002000000000000000000000000000DD000000F3
:100030000000000000000000DF000000E100000000
:10004000E3000000E3000000E3000000E300000024
:10005000E3000000E3000000E3000000E300000014
:1000600000000000E3000000E300000000000000CA
:1000700000000000E3000000E3000000E3000000D7
:10008000E3000000E3000000E3000000E3000000E4
:10009000E3000000E300000000000000000000009A
:1000A000E3000000E300000000000000000000008A
:1000B000E300000000000000E3000000E300000097
:1000C0000348854600F030F800480047DD22000074
:1000D000A804202003480047FEE7FEE7FEE7FEE70E
:1000E000FEE7FEE7C100000070B50446002903D01A
:1000F00000202022012310E0002801D00020C0436E
:10010000C046C0460DE02546D5408D4205D30D467C
:100110009540641B1D46954040191546521E002D02
:10012000F1DC214670BD0000064C0125064E05E0BD
:10013000E36807CC2B430C3C98471034B442F7D308
:10014000FFF7C2FF90230000A0230000811E091FBB
:1001500000BFFCD270470000F0B53C4A82183C4B0F
:10016000C31808794E793B4D3B4C002E23D02028F4
:1001700004D00526F601002803D003E0374E0028FE
:1001800000D18826576F2F4037435767976F2F400E
:1001900037439767566B26405663966B26409663A7
:1001A0000026566596658F26F6435F6837405F6088
:1001B0009F6837409F608E79096820280BD00028FF
:1001C00019D1491E5160D76E2F4088210F43D76641
:1001D0001746703719E0491E5160D16E29401F4FF4
:1001E0003943D166116F294039431167012149070D
:1001F0001B4D174609E049085160D76E2F40052175
:10020000C9010F43D766174670373C682C400C4332
:100210003C60D16A104C2140D162116B21401163C6
:100220000021D16411658F21C943D46F0C40D4677C
:100230001C680C401C600643BD2030401168094B0F
:100240000B40C018801C1060F0BDC04604180000B0
:100250008418000024493E008888FDFF0104000046
:10026000FFFFFFCF4000FFCF10B507239B041940CD
:1002700092008018024A84589C436118815010BD36
:100280003018000010B5029CA40000191143194356
:10029000014A815010BDC0465018000092008018DD
:1002A000014A81507047C0461018000010B5012265
:1002B000120383180C789C604B7883508978014A2C
:1002C000815010BD0C110000B0B5112212028358EC
:1002D0000124A34383500B888C781C438B882343D1
:1002E000094C1C408358094D1D40631983508B797C
:1002F000CC791C43097A21437E2319408018426837
:100300009A4351184160B0BD18670000E798FDFF9F
:100310000D49401801684907FCD4C069C0B2704754
:1003200010B50122120383180C789C604978815023
:1003300010BD0000044A801802681206FCD48161D6
:100340000168C907FCD1704708110000F0B5FFB083
:1003500086B0029001F0EEFFEB38444244410020A9
:100360006E4D6FA604E00C46781CE1B204290ED055
:10037000074685420BD001F0DDFF0246EB3A5142C1
:100380005141E2B2B25C9042EDD1641CECE7AF4265
:1003900017D201F0CFFF054601F0CCFF000244194F
:1003A00001F0C8FF0004241801F0C4FF000627185C
:1003B000781EC00C0ED0152001F0C2FF0020C643ED
:1003C00004E0FF2001F0BCFF0020C64330467FB0B0
:1003D00006B0F0BD062001F0B3FF524802990E4668
:1003E0000640C919504C0D19054001F0D9F9AE422B
:1003F00008D2304601F0C4FA002869D1A019461C81
:10040000AE42F6D3062001F09BFF01F08BFF0028DF
:1004100002D001F08FFFF8E70197002F3BD00120B9
:1004200000020390019D029E0496039885422F4688
:1004300000D3039F0026344601F07CFF45A9885570
:10044000641CA6B2B742F7DC45A90123049E3046DE
:100450003A4601F005FE002855D105A930463A4636
:1004600001F03AFB0020044605A9085C01F068FF92
:10047000641CA0B28742F7DC01E001F05BFF01F0F1
:1004800051FF0028F9D101F055FF062842D1ED1B9C
:10049000BE19002DC8D10026304601F051FF01F0F1
:1004A00049FF074601F046FF0002C41901F042FF70
:1004B0000004241801F03EFF000625180298019957
:1004C00001F0A8FEA8420AD1062001F039FF7DE71D
:1004D000FF2001F035FF0020C043461E76E70446AA
:1004E000152001F02DFFE0B201F02AFF200AC0B272
:1004F00001F026FF200CC0B201F022FF200E01F017
:100500001FFFF64362E7FF2001F01AFF0020C043FF
:10051000461E5BE70020C64358E7C046BFC62D0015
:10052000EB90EB9000F0FFFFFF0F0000F0B585B0FF
:100530000020B34F0290014608263E602025284641
:100540000F46FFF703FE0421AD4801600C46284624
:10055000FFF7FCFDAA4806612846FFF7F7FDA8480B
:10056000046104942846FFF7F1FD7820039000F021
:100570009FF8029800F09CF8B02001973843A04FF4
:10058000C0B200F095F83E612846FFF7DFFD3C6001
:100590002846FFF7DBFD3E602846FFF7D7FD3E60AB
:1005A0002846FFF7D3FD3C602846FFF7CFFD3E61AC
:1005B0002846FFF7CBFD3C612846FFF7C7FD0398AF
:1005C00000F076F8029800F073F8102000F070F850
:1005D0003E612846FFF7BAFD3C602846FFF7B6FDAE
:1005E0003E602846FFF7B2FD3E602846FFF7AEFDAD
:1005F0003C602846FFF7AAFD3E612846FFF7A6FDAE
:100600003C612846FFF7A2FD039800F051F8029CD8
:10061000204600F04DF8204600F04AF83E6128469A
:10062000FFF794FD049838602846FFF78FFD039686
:100630003E602846FFF78AFD2646039C3C60202545
:100640002846FFF783FD049F6D4807602846FFF7A3
:100650007DFD6B4804612846FFF778FD6848076117
:100660002846FFF773FD782000F022F8402000F0C4
:100670001FF8002000F01CF8614804612846FFF7CD
:1006800065FD5F4807605E4F2846FFF75FFD3C60F1
:100690002846FFF75BFD701C46B2002ECDD50199B0
:1006A000481CC9B20729014600D245E705B0F0BD94
:1006B000F0B581B004460006514E02D408203061E6
:1006C00001E00820306020252846FFF73FFD042781
:1006D00037602846FFF73AFD37612846FFF736FDB9
:1006E000600602D40820306101E008203060202537
:1006F0002846FFF72BFD37602846FFF727FD3761B7
:100700002846FFF723FDA00602D40820306101E04F
:100710000820306020252846FFF718FD376028465E
:10072000FFF714FD37612846FFF710FDE00602D4FD
:100730000820306101E00820306020252846FFF7BE
:1007400005FD37602846FFF701FD37612846FFF7B2
:10075000FDFC200702D40820306101E00820306051
:1007600020252846FFF7F2FC37602846FFF7EEFC0D
:1007700037612846FFF7EAFC600702D408203061A1
:1007800001E00820306020252846FFF7DFFC3760B5
:100790002846FFF7DBFC37612846FFF7D7FCA007A8
:1007A00002D40820306101E008203060202528466E
:1007B000FFF7CCFC37602846FFF7C8FC37612846B6
:1007C000FFF7C4FCE00702D10820306101E00820F7
:1007D000306020242046FFF7B9FC37602046FFF741
:1007E000B5FC37612046FFF7B1FC37602046FFF7C4
:1007F000ADFC37612046FFF7A9FC01B0F0BDC04653
:1008000090320A40F0B583B0642001F053FDFC4FF4
:1008100004253D6020242046FFF798FC08263E6012
:100820002046FFF793FC3E602046FFF78FFC3D60BB
:100830002046FFF78BFC3E612046FFF787FC3D61B9
:100840002046FFF783FC78200290FFF731FF00205D
:100850000190FFF72DFFAE20FFF72AFF3E612046F3
:10086000FFF774FC3D602046FFF770FC3E602046B9
:10087000FFF76CFC3E602046FFF768FC3D602046B9
:10088000FFF764FC3E612046FFF760FC3D612046B7
:10089000FFF75CFC0298FFF70BFF0198FFF708FFDA
:1008A000D520FFF705FF3E612046FFF74FFC3D6076
:1008B0002046FFF74BFC3E602046FFF747FC3E60BA
:1008C0002046FFF743FC3D602046FFF73FFC3E61BA
:1008D0002046FFF73BFC3D612046FFF737FC0298BE
:1008E000FFF7E6FE0198FFF7E3FE8020FFF7E0FE4A
:1008F0003E612046FFF72AFC3D602046FFF726FCBC
:100900003E602046FFF722FC3E602046FFF71EFCBB
:100910003D602046FFF71AFC3E612046FFF716FCBB
:100920003D612046FFF712FC0298FFF7C1FE0198D7
:10093000FFF7BEFEA820FFF7BBFE3E612046FFF793
:1009400005FC3D602046FFF701FC3E602046FFF7B6
:10095000FDFB3E602046FFF7F9FB3D602046FFF7B8
:10096000F5FB3E612046FFF7F1FB3D612046FFF7B6
:10097000EDFB0298FFF79CFE0198FFF799FE3F20E0
:10098000FFF796FE3E612046FFF7E0FB3D60204604
:10099000FFF7DCFB3E602046FFF7D8FB3E602046B9
:1009A000FFF7D4FB3D602046FFF7D0FB3E612046B9
:1009B000FFF7CCFB3D6100952046FFF7C7FB02988F
:1009C000FFF776FE0198FFF773FED320FFF770FE66
:1009D0003E612046FFF7BAFB3D602046FFF7B6FBBD
:1009E0003E602046FFF7B2FB3E602046FFF7AEFBBD
:1009F0003D602046FFF7AAFB3E612046FFF7A6FBBD
:100A00003D612046FFF7A2FB0298FFF751FE019DD2
:100A10002846FFF74DFE2846FFF74AFE3E61204676
:100A2000FFF794FB009D3D602046FFF78FFB3E6083
:100A30002046FFF78BFB3E602046FFF787FB3D60BB
:100A40002046FFF783FB3E612046FFF77FFB3D61B9
:100A50002046FFF77BFB0298FFF72AFE0198FFF77D
:100A600027FE4020FFF724FE3E612046FFF76EFB85
:100A70003D602046FFF76AFB3E602046FFF766FBBD
:100A80003E602046FFF762FB3D602046FFF75EFBBD
:100A90003E612046FFF75AFB3D612046FFF756FBBB
:100AA0000298FFF705FE0198FFF702FEA120FFF76D
:100AB000FFFD3E612046FFF749FB3D602046FFF702
:100AC00045FB3E602046FFF741FB3E602046FFF7B6
:100AD0003DFB3D602046FFF739FB3E612046FFF7B6
:100AE00035FB3D612046FFF731FB0298FFF7E0FD43
:100AF0000198FFF7DDFDC820FFF7DAFD3E612046D3
:100B0000FFF724FB3D602046FFF720FB3E602046B8
:100B1000FFF71CFB3E602046FFF718FB3D602046B8
:100B2000FFF714FB3E612046FFF710FB3D612046B6
:100B3000FFF70CFB0298FFF7BBFD0198FFF7B8FD2C
:100B4000DA20FFF7B5FD3E612046FFF7FFFA3D6072
:100B50002046FFF7FBFA3E602046FFF7F7FA3E60BB
:100B60002046FFF7F3FA3D602046FFF7EFFA3E61BB
:100B70002046FFF7EBFA3D612046FFF7E7FA0298BF
:100B8000FFF796FD0198FFF793FD1220FFF790FD08
:100B90003E612046FFF7DAFA3D602046FFF7D6FABD
:100BA0003E602046FFF7D2FA3E602046FFF7CEFABD
:100BB0003D602046FFF7CAFA3E612046FFF7C6FABD
:100BC0003D612046FFF7C2FA0298FFF771FD0198D8
:100BD000FFF76EFD8120FFF76BFD3E612046FFF7BA
:100BE000B5FA3D602046FFF7B1FA3E602046FFF7B8
:100BF000ADFA3E602046FFF7A9FA3D60204601E0CD
:100C000090320A40FFF7A2FA3E612046FFF79EFAB3
:100C10003D612046FFF79AFA0298FFF749FD0198D7
:100C2000FFF746FDCF20FFF743FD3E612046FFF76B
:100C30008DFA3D602046FFF789FA3E602046FFF7B7
:100C400085FA3E602046FFF781FA3D602046FFF7B7
:100C50007DFA3E612046FFF779FA3D612046FFF7B5
:100C600075FA0298FFF724FD0198FFF721FDD920BE
:100C7000FFF71EFD3E612046FFF768FA3D60204603
:100C8000FFF764FA3E602046FFF760FA3E602046B8
:100C9000FFF75CFA3D602046FFF758FA3E612046B8
:100CA000FFF754FA3D612046FFF750FA0298FFF72C
:100CB000FFFC0198FFF7FCFCF120FFF7F9FC3E6117
:100CC0002046FFF743FA3D602046FFF73FFA3E60BB
:100CD0002046FFF73BFA3E602046FFF737FA3D60BB
:100CE0002046FFF733FA3E612046FFF72FFA3D61B9
:100CF0002046FFF72BFA0298FFF7DAFC0198FFF77E
:100D0000D7FCDB20FFF7D4FC3E612046FFF71EFA3C
:100D10003D602046FFF71AFA3E602046FFF716FABC
:100D20003E602046FFF712FA3D602046FFF70EFABC
:100D30003E612046FFF70AFA3D612046FFF706FABA
:100D40000298FFF7B5FC0198FFF7B2FC3020FFF7DF
:100D5000AFFC3E612046FFF7F9F93D602046FFF702
:100D6000F5F93E602046FFF7F1F93E602046FFF7B7
:100D7000EDF93D602046FFF7E9F93E612046FFF7B7
:100D8000E5F93D612046FFF7E1F90298FFF790FC95
:100D90000198FFF78DFCA420FFF78AFC3E612046F6
:100DA000FFF7D4F93D602046FFF7D0F93E602046BA
:100DB000FFF7CCF93E602046FFF7C8F93D602046BA
:100DC000FFF7C4F93E612046FFF7C0F93D612046B8
:100DD000FFF7BCF90298FFF76BFC0198FFF768FC7E
:100DE000A620FFF765FC3E612046FFF7AFF93D60A6
:100DF0002046FFF7ABF93E602046FFF7A7F93E60BB
:100E00002046FFF7A3F93D602046FFF79FF93E61BA
:100E10002046FFF79BF93D612046FFF797F90298BE
:100E2000FFF746FC0198FFF743FC8D20FFF740FCDD
:100E30003E612046FFF78AF93D602046FFF786F9BC
:100E40003E602046FFF782F93E602046FFF77EF9BC
:100E50003D602046FFF77AF93E612046FFF776F9BC
:100E60003D612046FFF772F90298FFF721FC0198D7
:100E7000FFF71EFC1420FFF71BFC3E612046FFF726
:100E800065F93D602046FFF761F93E602046FFF7B7
:100E90005DF93E602046FFF759F93D602046FFF7B7
:100EA00055F93E612046FFF751F93D612046FFF7B5
:100EB0004DF90298FFF7FCFB0198FFF7F9FBAF2013
:100EC000FFF7F6FB3E612046FFF740F93D60204604
:100ED000FFF73CF93E602046FFF738F9FFF726FBA5
:100EE00003B0F0BDF14908607047C046F0B59FB04F
:100EF000441EE3B2FF20032B00D994E24B1ED9B26B
:100F0000072900D98FE25F200002101880B2010A81
:100F1000FF20562900D986E2D1B2A12900D282E26F
:100F2000FF2900D17FE204940593100AA13880B212
:100F30005E224243A13988B210184001DB4909689A
:100F4000081813AC2022214600F0C6FDA07B1290A9
:100F5000207B1190A07A1090207A0F90A0790E90AB
:100F600020790D90A0780C9020780B90E07B0A906F
:100F7000607B0990E07A0890607A0790E0790690AB
:100F80006779E0786478002110222CE0093A0B9D03
:100F9000D54001262E400C9DD540ED07AD0FAD1973
:100FA0000D9ED640F607760FAD190E9ED640F60779
:100FB000360FAD190F9ED640F607F60EAD19109EEE
:100FC000D640F607B60EAD19119ED640F607760E3E
:100FD000AD19129ED640F2012A431BAD6A54491C3A
:100FE000002B1A4627D0531E0829CFD32246DA40B9
:100FF000012515400246DA40D207920F52193D46AC
:10100000DD40ED076D0F5219069DDD40ED072D0FF8
:101010005219079DDD40ED07ED0E5219089DDD4088
:10102000ED07AD0E5219099DDD40ED076D0E551906
:101030000A9EDE40CFE7FD4F08243C602026304664
:10104000FFF784F804203860054611903046FFF71A
:101050007DF83C613046FFF779F83D613046FFF797
:1010600075F878201090FFF723FB00252846FFF73E
:101070001FFB04984100B02003910843C0B2FFF762
:1010800017FB3C613046FFF761F8119FE7480760A6
:101090003046FFF75BF8E54804603046FFF756F846
:1010A000E24804603046FFF751F8E04807603046F8
:1010B000FFF74CF8DD4804613046FFF747F8DB489E
:1010C00007613046FFF742F81098FFF7F1FA28461B
:1010D000FFF7EEFA1021059801910843C0B2029083
:1010E000FFF7E6FAD14804613046FFF72FF8CF4802
:1010F00007603046FFF72AF8CC4804603046FFF717
:1011000025F8CA4804603046FFF720F8C748076052
:101110003046FFF71BF8C54804613046FFF716F864
:10112000C248076107463046FFF710F81098FFF7EE
:10113000BFFA2846FFF7BCFA2846FFF7B9FA3C6128
:101140003046FFF703F8119838603046FEF7FEFF8F
:101150003C603046FEF7FAFF1294B44F129C109593
:101160001BA8405D0F901298386020263046FEF78D
:10117000EDFF119D3D603046FEF7E8FF12983861A3
:101180003046FEF7E3FF3D613046FEF7DFFF782093
:10119000FFF78EFA4020FFF78BFA0F98FFF788FAD7
:1011A0003C613046FEF7D2FF3D60109D3046FEF7B1
:1011B000CDFF3C603046FEF7C9FF6D1C102DCED12F
:1011C00013A9887F1090087F0F90887E0E90087E6C
:1011D0000D90887D0C90087D0B90887C0A90087C8F
:1011E0000990C87F0890487F0790C87E0690487E87
:1011F0000590C87D04904B7DC87C497C0022019FEE
:101200002CE0093F099DFD4001262E400A9DFD402E
:10121000ED07AD0FAD190B9EFE40F607760FAD1929
:101220000C9EFE40F607360FAD190D9EFE40F607E8
:10123000F60EAD190E9EFE40F607B60EAD190F9EC6
:10124000FE40F607760EAD19109EFE40F6012E43C5
:101250001BADAE54521C002C274629D07C1E082AF8
:10126000CFD30D46E54001262E400546E540ED076B
:10127000AD0FAD191E46E640F607760FAD19049E78
:10128000E640F607360FAD19059EE640F607F60E66
:10129000AD19069EE640F607B60EAD19079EE6406C
:1012A000F607760EAD19089EE640CFE7A000202095
:1012B000D44F129C3C6020263046FEF747FF119821
:1012C000386005463046FEF741FF3C613046FEF788
:1012D0003DFF3D613046FEF739FF78201090FFF763
:1012E000E7F900252846FFF7E3F9B1200399014308
:1012F000C8B2FFF7DDF93C613046FEF727FF119FCA
:10130000C04807603046FEF721FFBE480460304603
:10131000FEF71CFFBB4804603046FEF717FFB948D4
:1013200007603046FEF712FFB64804613046FEF70C
:101330000DFFB44807613046FEF708FF1098FFF72D
:10134000B7F92846FFF7B4F90298FFF7B1F9AD48AD
:1013500004613046FEF7FAFEAA4807603046FEF701
:10136000F5FEA84804603046FEF7F0FEA54804608C
:101370003046FEF7EBFEA348076007463046FEF70F
:10138000E5FE3C613046FEF7E1FE119838613046DB
:10139000FEF7DCFE1098FFF78BF92846FFF788F977
:1013A0002846FFF785F93C613046FEF7CFFE1198DD
:1013B00038603046FEF7CAFE3C603046FEF7C6FE97
:1013C000904F119E1BA8405D10903C602024204649
:1013D000FEF7BCFE3E602046FEF7B8FE129838616C
:1013E0002046FEF7B3FE3E612046FEF7AFFE7820B2
:1013F000FFF75EF94020FFF75BF91098FFF758F907
:10140000129838612046FEF7A1FE3E602046FEF7A6
:101410009DFE129838602046129CFEF797FE6D1CC8
:10142000102DCFD1002040B21FB0F0BD90320A4045
:10143000F0B581B0082916D805461078002812D0DA
:101440000C46571C39780002401882B2E6B2284692
:101450003146FFF74BFD072E05D8B91C641C787880
:1014600000280F46EED101B0F0BD0000F0B585B008
:10147000019204910290002B2AD01C46581E039022
:101480000298401E0027C5B202E07F1CA7421FD071
:10149000F8430121001905D003980A225143401E48
:1014A0008742FAD1032DF0D804983E18701EC0B2BE
:1014B0000728EAD80198FEF717FE0A21FEF714FE66
:1014C0000A4604480243F1B20298FFF70FFDDCE739
:1014D00005B0F0BDB0A30000F0B53F4A872313610B
:1014E00001218C063D480460141F23600B06036035
:1014F0003B4B5D1C3B4C25653B4D6E1C6665666D2C
:1015000066651646143E81273760A363E363374E52
:10151000266027682760666066686660344EA66449
:10152000A76CA764E664E66CE66417464C3F314E50
:101530003E601746483F3E601746443F3E601746B0
:10154000403F3E60A560A768A76065616769676105
:101550002564276C27646564676C6764E562E76AE5
:10156000E762E566E76EE7662567276F27676567C9
:10157000676F67672566276E2766E565E76DE76530
:10158000A565A76DA7655361156014681460536065
:101590001C3A13600246303A0F239B031360024645
:1015A000403AC906116014490160803E1348016841
:1015B00031430160FF20023011490A6A02430A6286
:1015C0000A6802430A60252000050E4908610C22C2
:1015D0000A600C300864F0BDDC804240D0120A4042
:1015E000810002000480424081000E00810005005D
:1015F00081000D008100010000C0030890130A4023
:1016000028100A4090320A400D4800210160032052
:10161000C1430C48021F13680B401360416801224C
:1016200091434160110242688A434260016830225E
:101630009143016001680F22914301607047C046E9
:1016400008030B4004010B4010B5124C1249204610
:10165000FEF766FE11492046FEF736FE0320C10361
:101660000F4802688A43026001690E4A0A40911CD1
:10167000016141690B220A4334218A434261416876
:101680000122114043689343591841600168114396
:10169000016010BD00801040762300007823000018
:1016A000009110400000FFFFF0B581B01C4C1D49B7
:1016B0002046FEF7FBFD1C492046FEF74DFD1B486A
:1016C00001681B4A0A400260002500952046294611
:1016D0002A462B46FEF7D6FD204629462A46FEF727
:1016E000C3FD144E204631462A46FEF7D7FD01279A
:1016F0000097204629462A462B46FEF7C3FD204682
:1017000029463A46FEF7B0FD204631463A46FEF7F6
:10171000C5FD094887600321016001B0F0BDC046E6
:1017200000A08640822300008823000004B8864081
:101730007F00FFFFE903000000B1864080B500F0A4
:101740000FF8FFF7C9FEFFF75FFFFFF7ADFFFFF7E9
:101750007BFF9C20014900220A5480BD000020200C
:1017600010B5094809494160094A5160094B59605F
:10177000094C616009490160116019602160102005
:10178000FEF7E4FC10BDC04600080A40030000B1AB
:1017900000280A4000A8864000881040010000266A
:1017A000F0B581B0062000F0B3FB0120C106009126
:1017B000C74A11610505C74F3D60103F46063E60B0
:1017C00020242046FEF7C2FCB9480068C1480660E4
:1017D0002046FEF7BBFCBF4805603E602046FEF792
:1017E000B5FCB3480068BB4806602046FEF7AEFC77
:1017F000B84805603E602046FEF7A8FCAC4800688B
:10180000B44806602046FEF7A1FCB24805603E6081
:101810002046FEF79BFCA6480068AE4806602046BE
:10182000FEF794FCAB4805603E602046FEF78EFC58
:101830009F480068A74806602046FEF787FCA54839
:1018400005603E602046FEF781FC99480068A1488B
:1018500006602046FEF77AFC9E4805603E60204602
:10186000FEF774FC924800689A4806602046FEF72E
:101870006DFC3D603E602046FEF768FCF84800685D
:10188000F64806602046FEF761FCF44805603E60BD
:101890002046FEF75BFCF2480068F04806602046F0
:1018A000FEF754FCED4805603E602046FEF74EFC16
:1018B000EB480068E94806602046FEF747FCE74829
:1018C00005603E602046FEF741FCE5480068E348BD
:1018D00006602046FEF73AFCE04805603E60204680
:1018E000FEF734FCDE480068DC4806602046FEF760
:1018F0002DFCDA4805603E602046FEF727FCD848FC
:101900000068D64806602046FEF720FCD3480560F4
:101910003E602046FEF71AFCD1480068CF480660BA
:101920002046FEF713FCCD4805603E602046FEF7DA
:101930000DFCCB480068C94806602046FEF706FC4F
:10194000C648056005463E602046FEF7FFFBC448DA
:1019500000682E602046FEF7F9FBBF480099016041
:1019600000F080F9C00709D03224641E06D001209F
:1019700000F0A0FC00F076F9C007F6D101B0F0BD90
:10198000F0B583B00090062000F0C2FA0120C10635
:101990000191B14A11610405B04F3C60103F460609
:1019A0003E6020252846FEF7D1FBAD480068AB48D5
:1019B00006602846FEF7CAFBA84804603E60284639
:1019C000FEF7C4FBFB480068F94806602846FEF7AE
:1019D000BDFB3C603E602846FEF7B8FBF54800685A
:1019E000F34806602846FEF7B1FBF14804603E600C
:1019F0002846FEF7ABFBEF480068ED480660284636
:101A0000FEF7A4FBEA4804603E602846FEF79EFB12
:101A1000E8480068E64806602846FEF797FBE44879
:101A200004603E602846FEF791FBE2480068E0480B
:101A300006602846FEF78AFBDD4804603E602846C3
:101A4000FEF784FBDB480068D94806602846FEF7AD
:101A50007DFBD748046004463E602846FEF776FBCF
:101A6000D448006826602846FEF770FB02A8009A5A
:101A70008270110A4170110C0170032100F09CF971
:101A8000CA480199016000F0EDF80024C0070CD0AD
:101A90007D20C5006D1E07D0012000F00BFC00F07A
:101AA000E1F8C007F6D100E0FE2460B203B0F0BD5B
:101AB00080130A4080B50120C106BC4A116041066E
:101AC000BB4A11600105116000F0F4FB80BDC04607
:101AD00090120A40A0320A40F0B58BB003920291F6
:101AE00009900120C106B14A009111610505B04F6E
:101AF0003D60103F44063C6020263046FEF726FB42
:101B0000AC480068AA4804603046FEF71FFBA848AE
:101B100005603C603046FEF719FBFC480068A448AD
:101B200004603046FEF712FBA14805603C60304679
:101B3000FEF70CFBF54800689D4804603046FEF750
:101B400005FB9B4805603C603046FEF7FFFAEF4816
:101B50000068974804603046FEF7F8FA944805603C
:101B60003C603046FEF7F2FAE848006890480460AE
:101B70003046FEF7EBFA8E4805603C603046FEF7D3
:101B8000E5FAE24800688A4804603046FEF7DEFA6B
:101B90003D603C603046FEF7D9FADC480068844876
:101BA00004603046FEF7D2FA06953D6005973C602A
:101BB0003046FEF7CBFAD548006807947C480460AD
:101BC0003046FEF7C3FA0AA8099A8270110A4170DA
:101BD000110C0170032100F0EFF80398002836D0B3
:101BE000002001900146079F06E0029804994254A4
:101BF000491C039881422AD00491FF25019804468C
:101C000002461AE0069808600598076020263046CC
:101C1000FEF79CFABD4800680890654807603046AA
:101C2000FEF794FA0998400008998901C90F0A182B
:101C3000601C6D00072C0446D7D268B200285C49AE
:101C40000992DFD50698059A10601046DDE70098E6
:101C5000564908600BB0F0BD90120A40A0320A400D
:101C600080130A40F0B587B00120C106F94A0191FE
:101C7000116105054E4F3D60103F46063E60202431
:101C80002046FEF763FAF54800684948066020469A
:101C9000FEF75CFA464805603E602046FEF756FABD
:101CA000EE480068424806602046FEF74FFA40487A
:101CB00005603E602046FEF749FAE84800683C4867
:101CC00006602046FEF742FA394805603E6020462D
:101CD000FEF73CFAE1480068354806602046FEF70A
:101CE00035FA334805603E602046FEF72FFADB48A0
:101CF00000682F4806602046FEF728FA3D603E60E7
:101D00002046FEF723FAD548006829480660204699
:101D1000FEF71CFA264805603E602046FEF716FADC
:101D2000CE480068224806602046FEF70FFA039569
:101D30003D6002973E602046FEF708FAC7480068FB
:101D400004961B4806602046FEF700FAFF2700268F
:101D500032461CE00398164D28600298049D0560E9
:101D600020242046FEF7F2F9BC4800680590104890
:101D700005602046FEF7EAF90698400005998901BA
:101D8000C90F0A18701C7F00072E064608D278B2C9
:101D900000280692DED50398029908600846DDE720
:101DA0000198AC490860D0B207B0F0BD90120A406B
:101DB000A0320A4080130A40F0B583B0002900D158
:101DC000A2E00F4601210A0502924C06A24D12E044
:101DD00002982861009F2C6020263046FEF7B6F955
:101DE0009E4800682C613046FEF7B0F90198401C0F
:101DF0007F1E00D188E0017849B200290097019048
:101E000002D40298286101E002982860CFB22C60C9
:101E100020263046FEF79AF9FD4800682C613046CE
:101E2000FEF794F9780602D40298286101E002983E
:101E300028602C6020263046FEF788F9F4480068B8
:101E40002C613046FEF782F9B80602D40298286168
:101E500001E0029828602C6020263046FEF776F9D3
:101E6000EB4800682C613046FEF770F9F80602D4A2
:101E70000298286101E0029828602C6020263046F4
:101E8000FEF764F9E24800682C613046FEF75EF91F
:101E9000380702D40298286101E0029828602C607B
:101EA00020263046FEF752F9D94800682C613046AA
:101EB000FEF74CF9780702D40298286101E00298F5
:101EC00028602C6020263046FEF740F9D048006894
:101ED0002C613046FEF73AF9B80702D4029828611F
:101EE00001E0029828602C6020263046FEF72EF98B
:101EF000C74800682C613046FEF728F9F80700D182
:101F000066E70298286065E703B0F0BD80130A40D9
:101F1000F0B583B004460120C206BB490A6103053F
:101F200061B2ED4F00290192029301D43B6100E0C0
:101F30003B6046063E6020252846FEF707F9B44878
:101F400000683E612846FEF701F9600602D4029857
:101F5000386101E0029838603E6020252846FEF78F
:101F6000F5F8AB4800683E612846FEF7EFF8A0069A
:101F700002D40298386101E0029838603E60202562
:101F80002846FEF7E3F8A24800683E612846FEF7BF
:101F9000DDF8E00602D40298386101E0029838606A
:101FA0003E6020252846FEF7D1F8994800683E613A
:101FB0002846FEF7CBF8200702D40298386101E0EA
:101FC000029838603E6020252846FEF7BFF890480A
:101FD00000683E612846FEF7B9F8600702D402980F
:101FE000386101E0029838603E6020252846FEF7FF
:101FF000ADF8874800683E612846FEF7A7F8A007BD
:1020000002D40298386101E0029838603E602025D1
:102010002846FEF79BF87E4800683E612846FEF79A
:1020200095F8E00703D102983861019D02E002981B
:102030003860019D3E6020242046FEF787F87448F2
:1020400000683E612046FEF781F86F48056003B0E6
:10205000F0BDC04690120A4090320A4080130A40F8
:10206000F0B583B0029307460020002A24D015461D
:102070000E460190F8B201210902081A85422C4649
:1020800000D304460298002808D038460B4908407F
:1020900004D13846FFF774FC00280DD1A4B23846AD
:1020A0003146224600F00CF8002805D12D1B3619C8
:1020B0003F19002DDED1019803B0F0BDFF0F0000E5
:1020C000F0B585B00346501EFF2801D9FF2497E0E4
:1020D0000620039202910093FFF71AFF0120C10628
:1020E0000191494A11610605484D2E60103D440694
:1020F0002C6020273846FEF729F8454800684348F9
:1021000004603846FEF722F8404806602C603846E6
:10211000FEF71CF83E4800683C4804603846FEF76D
:1021200015F83A4806602C603846FEF70FF8384834
:102130000068364804603846FEF708F83348066001
:102140002C603846FEF702F8314800682F480460DA
:102150003846FDF7FBFF2D4806602C603846FDF73A
:10216000F5FF2B480068294804603846FDF7EEFF6C
:10217000264806602C603846FDF7E8FF24480068D2
:10218000224804603846FDF7E1FF2E602C60384697
:10219000FDF7DCFF1E4800681C4804603846FDF768
:1021A000D5FF1A48066006462C603846FDF7CEFF7C
:1021B0001748006834603846FDF7C8FF04A8009A45
:1021C0008270110A4170110C01700321FFF7F4FDB8
:1021D00002980399FFF7F0FD0B4801990160FFF7A2
:1021E00041FD0024C0070BD032256D1E07D0012011
:1021F00000F060F8FFF736FDC007F6D100E0FE24DE
:1022000060B205B0F0BDC04690120A40A0320A404C
:1022100080130A40F0B5C3B0002945D00C46002118
:102220000091CD43012109020191214F04E0A41B3B
:1022300002988019002C34D001998C42264600D394
:10224000019E03A902903246FFF746FC0098014622
:1022500003E0401C81B28E42E9DD03AA525C6A4071
:102260005108D20700D079404A08C90700D07A4007
:102270005108D20700D079404A08C90700D07A40F7
:102280005108D20700D079404A08C90700D07A40E7
:102290005108D20700D079404D08C907D9D07D40F8
:1022A000D7E7E84343B0F0BD002043B0F0BDC046DF
:1022B0002083B8ED10B504467D200002FDF746FFEF
:1022C000601E21040446F7D110BD000001208005E6
:1022D000014908607047C04690320A40FFF72EFA65
:1022E000FFF7E8FBFEF78EFA00242046FEF72EF8F3
:1022F0002046FEF7F7FD0124064A04232046214626
:10230000FFF7B4F8022004A22146FFF791F8FFF787
:10231000DDFFFEE7D2040000BACED2E2CEB6A3BF04
:1023200000000000024800688108012088437047CF
:102330000891104080B50548FDF7EAFF80BDC04612
:1023400080B501460148FDF7F5FF80BD00801040D3
:1023500002E008C8121F08C1002AFAD17047000025
:102360007047000000000000002001E001C1121FC2
:10237000002AFBD170470807000018000000003059
:102380000000080700000000E90300000001000051
:10239000A023000000002020A80400006823000003
:04000005000000C136
:00000001FF
