:020000040000FA
:10000000680220206D0100007101000073010000F2
:1000100000000000000000000000000000000000E0
:10002000000000000000000000000000750100005A
:1000300000000000000000007701000079010000CE
:100040007B0100007B0100007B0100007B010000C0
:100050007B0100007B0100007B0100007B010000B0
:10006000000000007B0100007B0100000000000098
:10007000000000007B0100007B0100007B0100000C
:100080007B0100007B0100007B0100007B01000080
:100090007B0100007B010000000000000000000068
:1000A0007B0100007B010000000000000000000058
:1000B0007B010000000000007B0100007B010000CC
:1000C00000F002F800F042F80CA030C808382418FC
:1000D0002D18671EA246AB4654465D46AC4201D180
:1000E00000F034F87E460F3EB6460FCC0126334270
:1000F00000D0FB1A3343A246AB4618473C1700001A
:100100005C17000000000000103A02D378C878C1E4
:10011000FAD8520701D330C830C101D504680C6049
:100120007047000000000000002300240025002686
:10013000103A01D378C1FBD8520700D330C100D5A3
:100140000B6070471FB51FBD10B510BD00F023F93F
:100150001146FFF7F7FF00F0D1FF00F03BF903B4C1
:10016000FFF7F2FF03BC00F041F90000064800472A
:10017000FEE7FEE7FEE7FEE7FEE7FEE70348044989
:10018000024A044B70470000C100000068012020B3
:100190006802202068012020002203098B4273D3CB
:1001A000030A8B4258D3030B8B423CD3030C8B4284
:1001B00021D312E003460B437FD4002243088B4235
:1001C00074D303098B425FD3030A8B4244D3030BDE
:1001D0008B4228D3030C8B420DD30902FF2212BAA3
:1001E000030C8B4202D31212090265D0030B8B421F
:1001F00019D300E0090AC30B8B4201D3CB03C01A09
:100200005241830B8B4201D38B03C01A5241430BE3
:100210008B4201D34B03C01A5241030B8B4201D3D3
:100220000B03C01A5241C30A8B4201D3CB02C01A3E
:100230005241830A8B4201D38B02C01A5241430AB6
:100240008B4201D34B02C01A5241030A8B4201D3A5
:100250000B02C01A5241CDD2C3098B4201D3CB014C
:10026000C01A524183098B4201D38B01C01A5241FB
:1002700043098B4201D34B01C01A524103098B42FF
:1002800001D30B01C01A5241C3088B4201D3CB00EA
:10029000C01A524183088B4201D38B00C01A5241CD
:1002A00043088B4201D34B00C01A5241411A00D27D
:1002B00001465241104670475DE0CA0F00D04942E6
:1002C000031000D3404253409C46002203098B4256
:1002D0002DD3030A8B4212D38901FC2212BA030ADE
:1002E0008B420CD3890192118B4208D38901921160
:1002F0008B4204D389013AD0921100E08909C309E5
:100300008B4201D3CB01C01A524183098B4201D3E6
:100310008B01C01A524143098B4201D34B01C01AD1
:10032000524103098B4201D30B01C01A5241C30849
:100330008B4201D3CB00C01A524183088B4201D3B8
:100340008B00C01A5241D9D243088B4201D34B00D3
:10035000C01A5241411A00D201465241104663462A
:100360005B1001D34042002B00D5494270476346E1
:100370005B1000D3404201B50449002802DC491C4F
:10038000084000E00846C046C04602BDFFFFFF7FB0
:10039000704770477047754600F024F8AE46050078
:1003A00069465346C008C000854618B020B5FFF71F
:1003B000E5FE60BCB64600260027C0C5C0C5C0C566
:1003C000C0C5C0C5C0C5C0C5C0C5403D490849007D
:1003D0008D46704710B50446C046C0462046FFF71C
:1003E000BEFE10BD004870470800202001491820BB
:1003F000ABBEFEE7260002007047811E091F00BF4A
:10040000FCD27047B0B54A683B4BC2503B4A80189B
:100410000A78222A58D8930001A4E3589F46C04680
:10042000BF040000C9040000BF040000C9040000AC
:10043000C9040000C9040000C9040000C904000088
:10044000C9040000C9040000C9040000C904000078
:10045000C9040000C9040000C9040000C904000068
:10046000AD040000C9040000AD040000C904000090
:10047000C9040000C9040000C9040000C904000048
:10048000C9040000C9040000C9040000C904000038
:10049000C9040000C9040000C9040000C904000028
:1004A000AD040000C9040000AD04000003231B07D5
:1004B00004689C4301235B07E318036004E0032303
:1004C0001B0704689C4304600B69C360CB680C4C39
:1004D0001C40C36A0B4D1D402B19C36203680A4CB4
:1004E0001C400460097A11433F2211400368934382
:1004F00059180160B0BDC04608180000041800007B
:10050000777702008888FDFF7F00FFFF10B501228A
:10051000120383180C789C604B7883508978014AC9
:10052000815010BD0C110000F0B581B02E4B186841
:100530000122D1051F680F40009212032B490D685C
:1005400000260001344609D41420144600F0CAFDE8
:100550002246254B1868C00E012484431540002F05
:10056000374607D114201F4600F0BCFD3868C00D87
:1005700001278743002D354607D1142000F0B2FD36
:100580001A480068010B01258D431949002C009879
:1005900002D00A78002A06D0002F07D0154A127818
:1005A000002A03D10220002E10D016E06A1E2B462E
:1005B0009341114A1278564256411E4001D13046AD
:1005C00000E0032001225640002E06D10B4A13788A
:1005D000002B02D1012313700020064A17700C7003
:1005E00005490D7001B0F0BD80330A4080130A4008
:1005F0002A0120202801202029012020600120201C
:10060000F0B583B00446C54D2888C64E3188491ED2
:100610008AB2401E83B200200190014600F0A2FB86
:100620000120C103C04B009119614002BF4908601D
:10063000288800281CD032463188260A019B02E017
:100640005B1C834214D200290199F9D00293002740
:100650003046154600F0A8FAE0B200F0A5FA2A46A6
:100660007F1C29888F42F3D3AC480088029BE7E7C0
:100670000098AD49086003B0F0BDC046F0B583B046
:100680004D4C25462020FFF7B8FE6D1EFAD10127FC
:100690003804A54908603D0248480560484E2020BE
:1006A000FFF7ABFE761EFAD1444810380190056082
:1006B0002020FFF7A2FE641EFAD1FE039A4C2661A9
:1006C00002977D023D480560112000F06DFA00960A
:1006D00026603C4C2020FFF790FE641EFAD1924C1D
:1006E000009F27613548056006463A2000F05CFA15
:1006F0002760276101980560052000F055FA276002
:1007000027613560212000F04FFA276027613560AE
:10071000292000F049FA276027612B480024047043
:10072000804E50203080D249A020088027481A21CE
:10073000018027480299018020480560362000F09A
:1007400033FA79480760076101980560C82000F016
:100750002BFA75480760C64800883188491E8AB25E
:10076000401E83B220460294214600F0FBFA6E48F8
:10077000076101980560BE480088002817D03188BD
:10078000029C02E0641C844211D200290299F9D033
:1007900000270025284600F007FA284600F004FA52
:1007A0007F1C31888F42F4D3B1480088EAE75E4865
:1007B0000099016003B0F0BD50C30000A0120A40D0
:1007C000A0860100C0D401006A002020040020207F
:1007D00006002020F0B589B01F4603920891A44975
:1007E00009884F4B1C8807900501681E103D0E9A22
:1007F000002A0294AEB222D08E421ED2069582B258
:100800008A4200D3481E84B2464D2888401E82B2D8
:10081000002004903146234600F0A4FA0120C103D1
:10082000414A019111614002404908600594A64285
:1008300042D901983C490860394B1F801EE08E4226
:100840001CD282B28A4200D3481E84B2354F388807
:10085000401E82B2002005903146234600F082FA05
:100860000120C103304A0491116140022F49086000
:100870000694A64239D904982B4908600898007854
:100880000028039F13D00024264D26462988E20025
:10089000D21D8A420BD2C2B2761CF4B2079821460E
:1008A0003B4600F0D1FA0898005D0028EED11C48C4
:1008B0000299018009B0F0BD28883E0A06E0069939
:1008C000491C069189B2059A9142B2D80028049831
:1008D000F5D00024304600F067F9F8B200F064F972
:1008E000641C28888442F5D3E9E7388806E0294665
:1008F000691C0D4689B2069A9142BCD80028059819
:10090000F5D000240026304600F04EF9304600F0C5
:100910004BF9641C38888442F4D3E8E700002020B7
:10092000680020200200202090320A4090120A40E5
:10093000F0B583B00446006800282AD00020FFF7F5
:100940005FFE257BE17A4919CBB22279934200D828
:100950000A46D0B2019085421BD22E012F46029545
:100960006179791A4D424D41216889592389E2887C
:10097000A07A0095C019029D401BC0B2FFF72AFF64
:100980007F1CF8B20199814203D01036207B02907F
:10099000E6E703B0F0BDF0B585B00679002E49D08A
:1009A000044602684079010155186968002944D05D
:1009B0002B7A002B41D03025655D032D0AD802909B
:1009C000204630306F1C0770ED006519029868757D
:1009D0002E752A6100202073607123712160FFF75A
:1009E0000FFE257BE17A4919CBB22279934200D8D8
:1009F0000A46D1B2FF2003918D4223D202902F01EB
:100A000004956179691A4E424E412168C95923897A
:100A1000E288A07A0096049EAE1B3018C0B2FFF7A1
:100A2000D9FE6D1CE8B2039981420DD01037207BAE
:100A30000490E6E7002005B0F0BDE968002901D088
:100A40008847607905B0F0BD029805B0F0BD0000A0
:100A500010B530230024C454012383720281C18065
:100A6000848004600473BD4909880909C17210BDFE
:100A700000002020F0B583B00379002B6CD0044631
:100A800046794171C27A077B0020934215D95D1ED9
:100A9000002901D1B54210D0002E08D18D4206D1D7
:100AA00028461146FFF786FB88B2281A05E0D019C0
:100AB000884202D98F4204D9B81A2073C0B2B84212
:100AC0001CD13001216809582389E288A07A0025C9
:100AD0000095F51B2818C0B2FFF77CFE20686579E9
:100AE000290141582389E288207BA47A01260096B7
:100AF0002C19201AC0B2FFF76DFE2DE020680028E7
:100B00002AD00020FFF77CFD257BE17A4919CBB282
:100B10002279934200D80A46D0B2019085421BD276
:100B20002E012F4602956179791A4D424D41216877
:100B300089592389E288A07A0095029D7D1B281897
:100B4000C0B2FFF747FE7F1CF8B20199814203D083
:100B50001036207B0290E6E703B0F0BD80B5017946
:100B6000002909D04A1E41798A4201DC002100E0B7
:100B7000491CC9B2FFF77EFF80BD80B5017900290D
:100B800007D04279002A00D01146491EC9B2FFF7AA
:100B900071FF80BD10B530230024C4540473447128
:100BA0000271016010BD0000F0B581B04A4E01270E
:100BB0003760009040B2002802D40220306003E089
:100BC000304610380221016020252846FFF715FC29
:100BD0003446103C27602846FFF70FFC376000982A
:100BE000400602D40220306001E00220206020256F
:100BF0002846FFF702FC27602846FFF7FEFB376018
:100C00000098800602D40220306001E002202060BB
:100C100020252846FFF7F1FB27602846FFF7EDFB6C
:100C200037600098C00602D40220306001E0022044
:100C3000206020252846FFF7E0FB27602846FFF7C5
:100C4000DCFB37600098000702D40220306001E02E
:100C50000220206020252846FFF7CFFB276028468A
:100C6000FFF7CBFB37600098400702D402203060CA
:100C700001E00220206020252846FFF7BEFB276008
:100C80002846FFF7BAFB37600098800702D402209D
:100C9000306001E00220206020252846FFF7ADFBF0
:100CA00027602846FFF7A9FB37600098C007354644
:100CB00003D102202860264602E00220206026465A
:100CC00020242046FFF799FB37602046FFF795FB6D
:100CD0002F6001B0F0BDC046A0120A40F0B581B04F
:100CE0001D4908701A2201215023A02501280AD08D
:100CF00003280CD002280ED10820009001221A20CF
:100D0000A02350250DE068200090084609E0A820A7
:100D10000090084605E0C820009001221A20A02378
:100D20005025CE03A64F3E610C4C23800C4B1D80FA
:100D3000444B1880424802804C02B84D2C6136204A
:100D4000FFF732FF3E603E612C600098FFF72CFFFA
:100D50003E6001B0F0BDC0466A00202000002020A7
:100D600002002020F0B587B0049302920391019015
:100D70000120C403924D2C614602A8480661074633
:100D80002F48008806902F48008805902A20FFF7FA
:100D90000BFF2C602C613E60059801994718B8B292
:100DA000000AFFF701FF2C602C619C480660F8B236
:100DB000FFF7FAFE2C602C619848066002980599AE
:100DC0000F18B8B2000AFFF7EFFE2C602C619348B1
:100DD0000660F8B2FFF7E8FE2C602C618F4F3E6191
:100DE0002B20FFF7E1FE2C602C613E6006980399F2
:100DF0004718B8B2000AFFF7D7FE2C602C6187486D
:100E00000660F8B2FFF7D0FE2C602C6183480660C4
:100E1000049806990F18B8B2000AFFF7C5FE2C60B7
:100E20002C617E480660F8B2FFF7BEFE2C602C6194
:100E30007A4806612C20FFF7B7FE2C6007B0F0BDA2
:100E40000600202004002020F0B583B00293154650
:100E5000C9004A1E0839CEB20001431E1038C1B283
:100E6000D2B2DBB23046FFF77DFF0120C103544A06
:100E700000911161400269490860203DE8B20027F5
:100E80005E28384600D82846C0B2000143490818F9
:100E900001900298050A0AE041480488200AFFF7F9
:100EA00083FEE0B2FFF780FE7F1C102F71D0019807
:100EB000C65D300605D43A480488200AFFF774FE60
:100EC00003E02846FFF770FE029CE0B2FFF76CFEDD
:100ED000700605D432480488200AFFF765FE03E057
:100EE0002846FFF761FE029CE0B2FFF75DFEB00608
:100EF00005D42B480488200AFFF756FE03E0284655
:100F0000FFF752FE029CE0B2FFF74EFEF00605D45A
:100F100023480488200AFFF747FE03E02846FFF72E
:100F200043FE029CE0B2FFF73FFE300705D41C48A9
:100F30000488200AFFF738FE03E02846FFF734FE56
:100F4000029CE0B2FFF730FE700705D41448048815
:100F5000200AFFF729FE03E02846FFF725FE029C42
:100F6000E0B2FFF721FEB00705D40D480488200A3F
:100F7000FFF71AFE03E02846FFF716FE029CE0B2D8
:100F8000FFF712FEF00787D02846FFF70DFE029C00
:100F900087E700980A49086003B0F0BD58110000C7
:100FA0006800202070470000012080051C4908606F
:100FB0007047C04601208005014908607047C0465F
:100FC00090320A401148812101641149114A0A6096
:100FD0004A608A64CA64CA67011F0A600E490166D2
:100FE000026E02664164426C426401600168016005
:100FF00003200102094A11611060C81C106483209B
:10100000C0030749086008637047C04688804240B3
:10101000048042408100020081000D0090120A40CD
:10102000A0320A400D48002101600320C1430C4852
:10103000021F13680B401360416801229143416015
:10104000110242688A434260016830229143016084
:1010500001680F22914301607047C04608030B40AE
:1010600004010B4010B5064C06492046FFF74EFA26
:1010700005492046FFF7C6F904480121016010BD6B
:1010800000008640481700004C17000008118640F9
:1010900080B500F00DF8FFF795FFFFF7C3FFFFF7EE
:1010A000E1FFB820014900220A5480BD6C002020D5
:1010B00080B5074807494160074A5160074B5960AE
:1010C00007490160116019601020FFF796F980BD93
:1010D00000080A40030000B100280A4000088640CA
:1010E0000100002610B504467D200002FFF785F9B7
:1010F000601E21040446F7D110BD0000FFF7C8FFB1
:10110000FFF7BCFA0120FFF7E9FD3F204101104C39
:101110001F222046FFF79CFC0E4903222046FFF7C2
:1011200039FD2046FFF704FC02E02046FFF716FDDC
:10113000FFF7FAF9032807D00228F6D00128F7D1E3
:101140002046FFF71AFDF3E72046FFF724FCEFE700
:101150002C012020601700000000000000000000AB
:101160000000000000000000000000181818181807
:101170001800181800000000000066662400000037
:10118000000000000000000000002424247E24242D
:101190007E242400000000000000083E49483E096B
:1011A000493E0800000000000000314A241048A415
:1011B000420000000000000000001C22221C294602
:1011C0004639000000000000000018180800000068
:1011D00000000000000000000000040810101010C3
:1011E0001008040000000000000020100808080893
:1011F000081020000000000000000024187E1824C1
:1012000000000000000000000000000008083E0888
:1012100008000000000000000000000000000000C6
:1012200000181810000000000000000000007E0000
:1012300000000000000000000000000000000000AE
:101240000018180000000000000002040810102020
:10125000400000000000000000003C42464A52628C
:10126000423C0000000000000000081828080808A0
:10127000083E00000000000000003C42020408108C
:10128000207E00000000000000003C42021C020220
:10129000423C0000000000000000040C1424447EC6
:1012A000040400000000000000007E40407C0202B8
:1012B000423C00000000000000001C20407C424234
:1012C000423C00000000000000007E0204081020E4
:1012D000202000000000000000003C42423C42424E
:1012E000423C00000000000000003C4242423E023E
:1012F0000438000000000000000000001818000082
:10130000001818000000000000000000181800007D
:101310000018181000000000000000020408100867
:10132000040200000000000000000000007E000039
:101330007E000000000000000000004020100810A7
:10134000204000000000000000003C4202040808A9
:10135000080008080000000000003C42424E524EC7
:10136000403C0000000000000000182442427E4281
:10137000424200000000000000007C42427C4242E9
:10138000427C00000000000000003C424040404021
:10139000423C00000000000000007C424242424209
:1013A000427C00000000000000007E40407C404085
:1013B000407E00000000000000007E40407C404075
:1013C000404000000000000000003C4240404E420F
:1013D000423C00000000000000004242427E4242C7
:1013E000424200000000000000003E080808080813
:1013F000083E00000000000000000202020202029B
:10140000423C000000000000000042444850704888
:1014100044420000000000000000404040404040C6
:10142000407E000000000000000042665A5A42421E
:10143000424200000000000000004262524A464260
:10144000424200000000000000003C424242424292
:10145000423C00000000000000007C4242427C4010
:10146000404000000000000000003C424242424A6E
:10147000443A00000000000000007C42427C4844E6
:10148000424200000000000000003C42403C0202DA
:10149000423C00000000000000007E080808080828
:1014A00008080000000000000000424242424242A0
:1014B000423C000000000000000042424242422440
:1014C00024180000000000000000424242425A5A24
:1014D0006642000000000000000042422418182468
:1014E0004242000000000000000044442828101080
:1014F000101000000000000000007E020408102010
:10150000407E00000000000000001E1010101010AF
:10151000101E000000000000000040201008080419
:101520000200000000000000000078080808080819
:1015300008780000000000000000081422000000ED
:10154000000000000000000000000000000000009B
:101550000000007E000000000000100804000000F1
:101560000000000000000000000000003C023E42BD
:10157000423E000000000000000040407C42424229
:10158000427C000000000000000000003C4240409F
:10159000423C000000000000000002023E424242C5
:1015A000423E000000000000000000003C427E407F
:1015B000423C00000000000000000C12107C1010E3
:1015C0001010000000000000000000003E424242F7
:1015D000423E023C00000000000040407C4242428B
:1015E000424200000000000000000800180808083F
:1015F000083E000000000000000004000C04040489
:101600000404443800000000000040404244487098
:1016100048440000000000000000180808080808FE
:10162000083E000000000000000000007649494923
:101630004949000000000000000000005C624242D6
:101640004242000000000000000000003C42424214
:10165000423C000000000000000000007C424242CA
:10166000427C404000000000000000003E42424238
:10167000423E020200000000000000005C624040A8
:101680004040000000000000000000003C42300C20
:10169000423C000000000000000010107C10101000
:1016A000120C000000000000000000004242424214
:1016B000423E0000000000000000000042424224C0
:1016C00024180000000000000000000049494949BA
:1016D00049360000000000000000000042241818F5
:1016E000244200000000000000000000424242428C
:1016F000423E023C00000000000000007E04081092
:10170000207E0000000000000000060808083008E5
:101710000808060000000000000008080808080883
:1017200008080000000000000000601010100C10FD
:1017300010106000000000000000000000324C00AB
:101740000000000000000000080000000000000091
:101750000000000000000000000000000000000089
:1017600004180000D0170000030000000000000073
:1017700000180000901700000400000000000000A6
:101780000818000000000000000000000000000039
:101790001D1800000000000000000000B50F000050
:1017A000131800000000000000000000A90F000056
:1017B000101800000000000000000000A50F00004D
:1017C0001618000060170000030000000000000071
:1017D00020180000000000000000000000000000D1
:1017E00029180000000000000000000000000000B8
:1017F0001618000060170000030000000000000041
:101800005049440050574D00454E434F4445520007
:101810004B64004B69003C204261636B004B7000DD
:101820005365742046726571005365742044757465
:10183000790000000000000058180000000020207F
:1018400008000000080100006018000008002020C7
:101850006002000028010000A00050001A000100F2
:04000005000000C136
:00000001FF
