:020000040000FA
:10000000080220204D0100005101000053010000B2
:1000100000000000000000000000000000000000E0
:10002000000000000000000000000000550100007A
:10003000000000000000000057010000590100000E
:100040005B010000450600005B0100005B01000051
:100050005B0100005B0100005B0100005B01000030
:10006000000000005B0100005B01000000000000D8
:10007000000000005B0100005B0100005B0100006C
:100080005B0100005B0100005B0100005B01000000
:100090005B0100005B0100000000000000000000A8
:1000A0005B0100005B010000000000000000000098
:1000B0005B010000000000005B0100005B0100002C
:1000C00000F002F800F032F80CA030C8083824180C
:1000D0002D18671EA246AB4654465D46AC4201D180
:1000E00000F024F87E460F3EB6460FCC0126334280
:1000F00000D0FB1A3343A246AB461847F417000062
:100100000418000000000000002300240025002641
:10011000103A01D378C1FBD8520700D330C100D5C3
:100120000B6070471FB51FBD10B510BD00F078F90A
:100130001146FFF7F7FF00F059FF00F090F903B404
:10014000FFF7F2FF03BC00F097F9000006480047F4
:10015000FEE7FEE7FEE7FEE7FEE7FEE703480449A9
:10016000024A044B70470000C10000000801202033
:100170000802202008012020002203098B4273D3AB
:10018000030A8B4258D3030B8B423CD3030C8B42A4
:1001900021D312E003460B437FD4002243088B4255
:1001A00074D303098B425FD3030A8B4244D3030BFE
:1001B0008B4228D3030C8B420DD30902FF2212BAC3
:1001C000030C8B4202D31212090265D0030B8B423F
:1001D00019D300E0090AC30B8B4201D3CB03C01A29
:1001E0005241830B8B4201D38B03C01A5241430B04
:1001F0008B4201D34B03C01A5241030B8B4201D3F4
:100200000B03C01A5241C30A8B4201D3CB02C01A5E
:100210005241830A8B4201D38B02C01A5241430AD6
:100220008B4201D34B02C01A5241030A8B4201D3C5
:100230000B02C01A5241CDD2C3098B4201D3CB016C
:10024000C01A524183098B4201D38B01C01A52411B
:1002500043098B4201D34B01C01A524103098B421F
:1002600001D30B01C01A5241C3088B4201D3CB000A
:10027000C01A524183088B4201D38B00C01A5241ED
:1002800043088B4201D34B00C01A5241411A00D29D
:1002900001465241104670475DE0CA0F00D0494206
:1002A000031000D3404253409C46002203098B4276
:1002B0002DD3030A8B4212D38901FC2212BA030AFE
:1002C0008B420CD3890192118B4208D38901921180
:1002D0008B4204D389013AD0921100E08909C30905
:1002E0008B4201D3CB01C01A524183098B4201D307
:1002F0008B01C01A524143098B4201D34B01C01AF2
:10030000524103098B4201D30B01C01A5241C30869
:100310008B4201D3CB00C01A524183088B4201D3D8
:100320008B00C01A5241D9D243088B4201D34B00F3
:10033000C01A5241411A00D201465241104663464A
:100340005B1001D34042002B00D549427047634601
:100350005B1000D3404201B50449002802DC491C6F
:10036000084000E00846C046C04602BDFFFFFF7FD0
:1003700070477047704710B501469E240002CA15A9
:10038000A307002A02D01843002A04DBA21A002A7D
:100390000CDDD04010BD1206120E01D14000400805
:1003A000A21A03D4D04040420028F3DDFF224800C7
:1003B0001206904201D9002010BDC817C043584012
:1003C00010BD1F22030C02D10F2200041CD0030E0B
:1003D00001D10002083A030F01D10001121F830F5F
:1003E00001D18000921E002801DB4000521ED20580
:1003F0005118021251181922904004D3491C0028A8
:1004000001D14908490008467047C10FC90700D00B
:100410004042012292071143D3E701218907D0E727
:10042000754600F025F8AE46050069465346C008FB
:10043000C000854618B020B5FFF790FE60BCB646F8
:1004400000260027C0C5C0C5C0C5C0C5C0C5C0C541
:10045000C0C5C0C5403D490849008D46704710B52C
:100460000446C046C0462046FFF769FE10BD0000A6
:10047000004870470000202001491820ABBEFEE76D
:10048000260002007047811E091F00BFFCD2704782
:10049000F0B53C4A82183C4BC31808794E793B4D65
:1004A0003B4C002E23D0202804D00526F60100283E
:1004B00003D003E0374E002800D18826576F2F4025
:1004C00037435767976F2F4037439767566B2640E0
:1004D0005663966B264096630026566596658F2672
:1004E000F6435F6837405F609F6837409F608E7952
:1004F000096820280BD0002819D1491E5160D76EF9
:100500002F4088210F43D7661746703719E0491EE0
:100510005160D16E29401F4F3943D166116F294078
:1005200039431167012149071B4D174609E0490866
:100530005160D76E2F400521C9010F43D76617467A
:1005400070373C682C400C433C60D16A104C214011
:10055000D162116B214011630021D16411658F219B
:10056000C943D46F0C40D4671C680C401C60064320
:10057000BD2030401168094B0B40C018801C106032
:10058000F0BDC046041800008418000024493E0055
:100590008888FDFF01040000FFFFFFCF4000FFCF70
:1005A00010B507239B04194092008018024A845812
:1005B0009C436118815010BD3018000010B5029C9A
:1005C000A400001911431943014A815010BDC046CF
:1005D0005018000092008018014A81507047C046B0
:1005E0001018000010B50122120383180C789C60CB
:1005F0004B7883508978014A815010BD0C1100005E
:1006000080B5064801880022028008B2FFF7FDFE8F
:100610000B4900F013FEFFF7AEFE80BD6000202006
:1006200080B5064801880022028008B2FFF7EDFE7F
:10063000034900F003FEFFF79EFE80BD620020200C
:100640004C37714080B503480068012801D100F0A3
:100650009BFC80BD30114040B0B5B02000F0C6FA20
:10066000102000F0C3FA0025284600F0BFFA00244D
:10067000204600F0E9FA681C45B2002DF7D5B120FC
:1006800000F0B4FA102000F0B1FA204600F0AEFA03
:100690000025284600F0D8FA601C44B2002CF7D59B
:1006A000B22000F0A3FA102000F0A0FA284600F0D3
:1006B0009DFA0024204600F0C7FA681C45B2002DC0
:1006C000F7D5B32000F092FA102000F08FFA204600
:1006D00000F08CFA0025284600F0B6FA601C44B2FF
:1006E000002CF7D5B42000F081FA102000F07EFA3B
:1006F000284600F07BFA0024204600F0A5FA681C8A
:1007000045B2002DF7D5B52000F070FA102000F0AA
:100710006DFA204600F06AFA0025284600F094FAA7
:10072000601C44B2002CF7D5B62000F05FFA102010
:1007300000F05CFA284600F059FA0024204600F048
:1007400083FA681C45B2002DF7D5B72000F04EFAA9
:10075000102000F04BFA204600F048FA002000F08C
:1007600073FA601C44B2002CF8D5B0BDF0B581B06E
:10077000044600067D4E02D40820306101E00820C6
:10078000306020252846FFF77EFE04273760284684
:10079000FFF779FE37612846FFF775FE600602D441
:1007A0000820306101E00820306020252846FFF74E
:1007B0006AFE37602846FFF766FE37612846FFF776
:1007C00062FEA00602D40820306101E008203060FB
:1007D00020252846FFF757FE37602846FFF753FECF
:1007E00037612846FFF74FFEE00602D4082030614B
:1007F00001E00820306020252846FFF744FE3760DE
:100800002846FFF740FE37612846FFF73CFE2007E9
:1008100002D40820306101E00820306020252846FD
:10082000FFF731FE37602846FFF72DFE3761284677
:10083000FFF729FE600702D40820306101E008209C
:10084000306020252846FFF71EFE37602846FFF758
:100850001AFE37612846FFF716FEA00702D40820CB
:10086000306101E00820306020252846FFF70BFEAC
:1008700037602846FFF707FE37612846FFF703FE7B
:10088000E00702D10820306101E008203060202418
:100890002046FFF7F8FD37602046FFF7F4FD37618B
:1008A0002046FFF7F0FD37602046FFF7ECFD37618B
:1008B0002046FFF7E8FD01B0F0BDC046B0B56420AA
:1008C00000F056FBF74D0420286020242046FFF757
:1008D000DAFD082028602046FFF7D5FDAE2000F0A5
:1008E00085F9D52000F082F9802000F07FF9A8205A
:1008F00000F07CF93F2000F079F9D32000F076F980
:10090000002000F073F9402000F070F9A12000F001
:100910006DF9C82000F06AF9DA2000F067F91220BA
:1009200000F064F9812000F061F9CF2000F05EF959
:10093000D92000F05BF9F12000F058F9DB2000F03D
:1009400055F9302000F052F9A42000F04FF9A6200C
:1009500000F04CF98D2000F049F9142000F046F920
:10096000AF2000F043F9FFF777FEB0BD90320A40A8
:10097000F0B583B016460C46400002907E30B021A0
:1009800001910843C0B200F031F9E700083FF8B226
:1009900004091034204600F029F908253D40284676
:1009A00000F024F9300121494618214FF05D00F094
:1009B0004BF9F619707800F047F9B07800F044F977
:1009C000F07800F041F9307900F03EF9707900F0EC
:1009D0003BF9B07900F038F9F07900F035F9029878
:1009E000401E01990843C0B200F000F9204600F013
:1009F000FDF8284600F0FAF8307A00F025F9707A10
:100A000000F022F9B07A00F01FF9F07A00F01CF93A
:100A1000307B00F019F9707B00F016F9B07B00F024
:100A200013F9F07B00F010F903B0F0BDEC120000F8
:100A300000FEFFFFF0B58BB04548056806684549E4
:100A40000A6801920A680292026807920068089098
:100A50000868099008680A90022701243EA23846D7
:100A6000214600F0ADF8280F224682430721069167
:100A70003846234600F07AF808210591384D38466B
:100A80002A4600F09DF8F043C20F09210491384630
:100A9000234600F06BF80A21039138462A462E4679
:100AA00000F08EF801980009224682430B21019143
:100AB0003846234600F05AF80C2538462946324677
:100AC00000F07EF802984009224682430D263846FF
:100AD0003146234600F04AF8032722A23846214631
:100AE00000F06EF80798800A22468243384606993D
:100AF000234600F03BF838460599194A00F060F8A3
:100B00000898C00A2246824338460499234600F0DA
:100B10002DF838460399124A00F052F80998000B54
:100B20002246824338460199234600F01FF8384692
:100B300029460B4A00F044F80A98400B22468243AB
:100B400038463146234600F011F80BB0F0BDC046E0
:100B500080130A4080330A4078312D78343A0000FF
:100B6000ED18000078352D78383A0000F0B583B0E4
:100B700002920191002B21D01C460746581E00907E
:100B800000250EE0029800F05DFA0A21FFF7F4FA62
:100B900030220A43F1B23846FFF7EAFE6D1CA54247
:100BA0000CD001982E18E84301210019EAD00098D2
:100BB0000A225143401E8542FAD1E3E703B0F0BD5B
:100BC000F0B581B00646107800280DD014460D46C9
:100BD00000277919C9B2C2B23046FFF7C9FE7F1C9F
:100BE000F8B2205C0028F4D101B0F0BDF0B581B0BE
:100BF0000090944E0827376020242046FFF743FCDE
:100C0000042535602046FFF73EFC37612046FFF79C
:100C10003AFC35612046FFF736FC7820FFF7A6FD49
:100C20000020FFF7A3FD0098FFF7A0FD37612046E5
:100C3000FFF729FC35602046FFF725FC376020468A
:100C4000FFF721FC01B0F0BDF0B581B000907D4E02
:100C50000827376020242046FFF715FC042535605F
:100C60002046FFF710FC37612046FFF70CFC35618A
:100C70002046FFF708FC7820FFF778FD4020FFF7BB
:100C800075FD0098FFF772FD37612046FFF7FBFB0B
:100C900035602046FFF7F7FB37602046FFF7F3FB90
:100CA00001B0F0BD90320A40F0B581B00C46002191
:100CB000C94300910127BA03F903194B294D0028B4
:100CC00005D41D461A60274E264A116003E02E46C1
:100CD0002A601D461960C113401848408D49081A02
:100CE00081B287480022FFF775FC39047804009A26
:100CF000944202DD3160286001E029603060E01339
:100D0000211841408348401A81B201227C48FFF7F4
:100D100061FC04200B21034AFFF752FF01B0F0BD34
:100D200090120A40E818000070B57D20C500744E8E
:100D3000002230462946FFF74DFC01243046294663
:100D40002246FFF747FCA00306490860E00308605D
:100D500020040860600408606C4801682143016059
:100D600070BDC046A0320A40B0B52C4C8722E26567
:100D7000012083062A490B60A26402060A608122D0
:100D8000A263284A284B9363D363284B13601568EA
:100D90001560536053685360254B9364956C95645C
:100DA000D364D36CD364234B23606360A360E3609C
:100DB000214C94609568956054615569556114643F
:100DC000156C15645464556C55641465156D156582
:100DD0005465556D55651467156F15675467546FE5
:100DE00054670A46303A0F24A40314600C60803B19
:100DF00012490A681A430A60FF210231104A136A35
:100E00000B43136213680B43136080050D4908619F
:100E10000C220A600C300864B0BDC046908042408D
:100E2000D0120A4004804240810002008100050087
:100E300081000D008100010081000E0090130A4026
:100E400028100A4090320A400D480021016003201A
:100E5000C1430C48021F13680B4013604168012214
:100E600091434160110242688A4342600168302226
:100E70009143016001680F22914301607047C046B1
:100E800008030B4004010B40F0B581B01C4C1D4918
:100E90002046FFF7A7FB1C492046FFF7F9FA1B483D
:100EA00001681B4A0A400260002500952046294639
:100EB0002A462B46FFF782FB204629462A46FFF7A3
:100EC0006FFB144E204631462A46FFF783FB01276D
:100ED0000097204629462A462B46FFF76FFB2046FF
:100EE00029463A46FFF75CFB204631463A46FFF773
:100EF00071FB094887600321016001B0F0BDC04665
:100F000000A08640DC180000E018000004B886400D
:100F10007F00FFFFE903000000B1864080B500F0CC
:100F20000DF8FFF721FFFFF78FFFFFF7ADFF9C20C4
:100F3000014900220A5480BD6400202080B5074882
:100F400007494160074A5160074B596007490160F2
:100F5000116019601020FFF796FA80BD00080A4062
:100F6000030000B100280A4000A8864001000026C6
:100F700010B504467D200002FFF785FA601E2104AB
:100F80000446F7D110BD0000F0B513480346103BEE
:100F90001968C9071149124A0CD015680124AD0718
:100FA0000D4600D525460F4E37887D1935800568DA
:100FB000254305601B68DB050CD50124230212685C
:100FC000920500D50C4608490A8812190A80016862
:100FD00019430160F0BDC04648100A40FFFF000001
:100FE00080130A406000202062002020FFF796FF57
:100FF000104802210160FFF761FCFFF795FE012414
:101000000022052320462146FFF7B0FD0AA2204614
:101010002146FFF7D5FD0120FFF7AAFFFFF7F0FA01
:10102000FFF7FEFAFFF706FD20B20146FFF73CFE90
:10103000641CF0E700E100E04D53504D304733357C
:101040003037000043088B421AD3002203098B4239
:1010500079D3030A8B425ED3030B8B4242D3030C3A
:101060008B4227D30902FF2212BA030C8B4202D310
:101070001212090203D0030B8B4233D31AE0D3E0E0
:10108000411A8041401C704703460B4371D443080A
:101090008B42F5D3002203098B4254D3030A8B42BF
:1010A00039D3030B8B421DD3030C8B4202D39446DE
:1010B0006EE0090AC30B8B4201D3CB03C01A524125
:1010C000830B8B4201D38B03C01A5241430B8B42DB
:1010D00001D34B03C01A5241030B8B4201D30B03C4
:1010E000C01A5241C30A8B4201D3CB02C01A5241EB
:1010F000830A8B4201D38B02C01A5241430A8B42AE
:1011000001D34B02C01A5241030A8B4201D30B0296
:10111000C01A5241CDD2C3098B4201D3CB01C01AB0
:10112000524183098B4201D38B01C01A52414309BA
:101130008B4201D34B01C01A524103098B4201D3A8
:101140000B01C01A5241C3088B4201D3CB00C01A15
:10115000524183088B4201D38B00C01A524143088D
:101160008B4201D34B00C01A5241411A5241100028
:101170007047CA0F00D04942031000D34042534089
:1011800000229C4603098B422DD3030A8B4212D3C3
:101190008901FC2212BA030A8B420CD389019211F5
:1011A0008B4208D3890192118B4204D3890137D035
:1011B000921100E08909C3098B4201D3CB01C01A07
:1011C000524183098B4201D38B01C01A524143091A
:1011D0008B4201D34B01C01A524103098B4201D308
:1011E0000B01C01A5241C3088B4201D3CB00C01A75
:1011F000524183088B4201D38B00C01A5241D9D28D
:1012000043088B4201D34B00C01A5241411A00D20D
:1012100001465241104663465B1000D3404270477E
:1012200063465B1000D3404201B50021004201D06B
:10123000C9430846C046C04602BD000070B5420022
:1012400064414B005C41120E39D01B0E38D0FF2A8E
:101250003CD0FF2B3AD0D2187F3A40024902400AD4
:10126000490A4518ED0106004E43000A090A4843A1
:101270000104731A4019190C4318990F04D05B0824
:10128000012149075B1A521CD80904D3401CF503FD
:1012900001D19D0607D0FF2A08D2D50506D0E40764
:1012A0002043401970BD0125A843F4E7002A01DC62
:1012B000E00770BD2402FF202043C00570BD1B0E57
:1012C000FF2A03D0FF2B01D0E00770BDFF263606B2
:1012D0004500B54206D84D00B54203D8D218FF2AC2
:1012E00000D0E7E7004870BD0000C07F00000000AC
:1012F000000000000000000000000000000000F8F6
:1013000000000000000000333000000000100C0658
:10131000100C0600000000000000000040C07840F3
:10132000C0784000043F04043F040400007088FCBF
:1013300008300000001820FF211E0000F008F00017
:10134000E018000000211C031E211E0000F0088888
:10135000700000001E2123241927211010160E00F2
:10136000000000000000000000000000000000E09D
:1013700018040200000000071820400000020418B2
:10138000E00000000040201807000000404080F00E
:10139000804040000202010F01020200000000F044
:1013A000000000000101011F010101000000000018
:1013B0000000000080B0700000000000000000008D
:1013C0000000000000010101010101010000000016
:1013D00000000000003030000000000000000000AD
:1013E00080601804006018060100000000E010088A
:1013F0000810E000000F102020100F00001010F85F
:10140000000000000020203F20200000007008089D
:10141000088870000030282422213000003008881D
:10142000884830000018202020110E000000C02045
:1014300010F8000000070424243F240000F8088866
:10144000880808000019212020110E0000E01088F3
:1014500088180000000F112020110E000038080825
:10146000C83808000000003F000000000070880835
:1014700008887000001C222121221C0000E01008B6
:101480000810E0000000312222110F00000000C00F
:10149000C0000000000000303000000000000080AC
:1014A000000000000000806000000000000080409C
:1014B00020100800000102040810200040404040B5
:1014C0004040400004040404040404000008102008
:1014D000408000000020100804020100007048084D
:1014E0000808F0000000003036010000C030C828B5
:1014F000E810E0000718272423140B000000C03870
:10150000E0000000203C23020227382008F88888E9
:1015100088700000203F202020110E00C0300808F5
:1015200008083800071820202010080008F80808CC
:101530000810E000203F202020100F0008F88888C5
:10154000E8081000203F20202320180008F8888891
:10155000E8081000203F200003000000C030080809
:101560000838000007182020221E020008F8080092
:101570000008F808203F210101213F20000808F859
:10158000080800000020203F20200000000008087C
:10159000F8080800C08080807F00000008F888C03C
:1015A00028180800203F20012638200008F80800ED
:1015B00000000000203F20202020300008F8F80024
:1015C000F8F80800203F003F003F200008F830C036
:1015D0000008F808203F200007183F00E010080826
:1015E0000810E0000F10202020100F0008F8080855
:1015F0000808F000203F210101010000E010080868
:101600000810E0000F18242438504F0008F888888C
:1016100088887000203F2000030C3020007088086C
:10162000080838000038202121221C00180808F87A
:10163000080818000000203F2000000008F80800FB
:101640000008F808001F202020201F0008788800CC
:1016500000C83808000007380E010000F80800F83C
:101660000008F800033C0700073C030008186880E6
:101670008068180820302C03032C30200838C8005C
:10168000C83808000000203F2000000010080808AB
:10169000C83808002038262120201800000000FE4D
:1016A000020202000000007F40404000000C30C0F9
:1016B00000000000000000010638C0000002020225
:1016C000FE000000004040407F00000000000402D7
:1016D0000202040000000000000000000000000002
:1016E00000000000808080808080808000020204F2
:1016F00000000000000000000000000000008080EA
:10170000808000000019242222223F2008F8008057
:1017100080000000003F112020110E00000000801A
:1017200080800000000E11202020110000000080A9
:101730008088F800000E112020103F2000008080DB
:1017400080800000001F222222221300008080F0EF
:10175000888888180020203F20200000000080801A
:1017600080808000006B94949493600008F800805F
:1017700080800000203F210000203F2000809898BA
:10178000000000000020203F20200000000000801A
:101790009898000000C08080807F000008F800005A
:1017A00080808000203F24022D302000000808F8AF
:1017B000000000000020203F20200000808080806A
:1017C00080808000203F20003F20003F80800080FC
:1017D00080800000203F210000203F20000080800A
:1017E00080800000001F202020201F0080800080BB
:1017F0008000000080FFA12020110E00000000806A
:1018000080808000000E112020A0FF80808080005A
:101810008080800020203F21200001000000808087
:10182000808080000033242424241900008080E07C
:10183000808000000000001F202000008080000049
:1018400000808000001F202020103F20808080002A
:101850000080808000010E3008060100808000803A
:10186000008080800F300C030C300F00008080005F
:10187000808080000020312E0E312000808080008A
:101880000080808080818E7018060100008080803A
:10189000808080000021302C2221300000000000D8
:1018A000807C020200000000003F40400000000079
:1018B000FF00000000000000FF0000000002027CAA
:1018C000800000000040403F0000000000060101D1
:1018D00002020404000000000000000008070000ED
:1018E000E90300000001000052756E21002C000089
:1018F000001900000000202008020000080100007C
:04000005000000C136
:00000001FF
