:020000040000FA
:10000000080520204D0100005101000053010000AF
:1000100000000000000000000000000000000000E0
:10002000000000000000000000000000550100007A
:10003000000000000000000057010000590100000E
:100040005B0100005B0100005B0100005B01000040
:100050005B0100005B0100005B0100005B01000030
:10006000000000005B0100005B01000000000000D8
:10007000000000005B0100005B0100005B0100006C
:100080005B0100005B0100005B0100005B01000000
:100090005B0100005B0100000000000000000000A8
:1000A0005B0100005B010000000000000000000098
:1000B0005B010000000000005B0100005B0100002C
:1000C00000F002F800F032F80CA030C8083824180C
:1000D0002D18671EA246AB4654465D46AC4201D180
:1000E00000F024F87E460F3EB6460FCC0126334280
:1000F00000D0FB1A3343A246AB461847DC1500007C
:10010000EC1500000000000000230024002500265C
:10011000103A01D378C1FBD8520700D330C100D5C3
:100120000B6070471FB51FBD10B510BD00F023F95F
:100130001146FFF7F7FF01F08BF900F03BF903B42C
:10014000FFF7F2FF03BC00F041F90000064800474A
:10015000FEE7FEE7FEE7FEE7FEE7FEE703480449A9
:10016000024A044B70470000C10000000801202033
:100170000805202008012020002203098B4273D3A8
:10018000030A8B4258D3030B8B423CD3030C8B42A4
:1001900021D312E003460B437FD4002243088B4255
:1001A00074D303098B425FD3030A8B4244D3030BFE
:1001B0008B4228D3030C8B420DD30902FF2212BAC3
:1001C000030C8B4202D31212090265D0030B8B423F
:1001D00019D300E0090AC30B8B4201D3CB03C01A29
:1001E0005241830B8B4201D38B03C01A5241430B04
:1001F0008B4201D34B03C01A5241030B8B4201D3F4
:100200000B03C01A5241C30A8B4201D3CB02C01A5E
:100210005241830A8B4201D38B02C01A5241430AD6
:100220008B4201D34B02C01A5241030A8B4201D3C5
:100230000B02C01A5241CDD2C3098B4201D3CB016C
:10024000C01A524183098B4201D38B01C01A52411B
:1002500043098B4201D34B01C01A524103098B421F
:1002600001D30B01C01A5241C3088B4201D3CB000A
:10027000C01A524183088B4201D38B00C01A5241ED
:1002800043088B4201D34B00C01A5241411A00D29D
:1002900001465241104670475DE0CA0F00D0494206
:1002A000031000D3404253409C46002203098B4276
:1002B0002DD3030A8B4212D38901FC2212BA030AFE
:1002C0008B420CD3890192118B4208D38901921180
:1002D0008B4204D389013AD0921100E08909C30905
:1002E0008B4201D3CB01C01A524183098B4201D307
:1002F0008B01C01A524143098B4201D34B01C01AF2
:10030000524103098B4201D30B01C01A5241C30869
:100310008B4201D3CB00C01A524183088B4201D3D8
:100320008B00C01A5241D9D243088B4201D34B00F3
:10033000C01A5241411A00D201465241104663464A
:100340005B1001D34042002B00D549427047634601
:100350005B1000D3404201B50449002802DC491C6F
:10036000084000E00846C046C04602BDFFFFFF7FD0
:10037000704770477047754600F024F8AE46050098
:1003800069465346C008C000854618B020B5FFF73F
:10039000E5FE60BCB64600260027C0C5C0C5C0C586
:1003A000C0C5C0C5C0C5C0C5C0C5403D490849009D
:1003B0008D46704710B50446C046C0462046FFF73C
:1003C000BEFE10BD004870470000202001491820E3
:1003D000ABBEFEE7260002007047811E091F00BF6A
:1003E000FCD27047F0B53C4A82183C4BC3180879E0
:1003F0004E793B4D3B4C002E23D0202804D00526BF
:10040000F601002803D003E0374E002800D18826EB
:10041000576F2F4037435767976F2F403743976782
:10042000566B26405663966B2640966300265665AB
:1004300096658F26F6435F6837405F609F68374058
:100440009F608E79096820280BD0002819D1491E99
:100450005160D76E2F4088210F43D76617467037FB
:1004600019E0491E5160D16E29401F4F3943D166B2
:10047000116F294039431167012149071B4D174668
:1004800009E049085160D76E2F400521C9010F438B
:10049000D766174670373C682C400C433C60D16AE5
:1004A000104C2140D162116B214011630021D164B5
:1004B00011658F21C943D46F0C40D4671C680C4070
:1004C0001C600643BD2030401168094B0B40C0182A
:1004D000801C1060F0BDC0460418000084180000A5
:1004E00024493E008888FDFF01040000FFFFFFCF84
:1004F0004000FFCF10B507239B04194092008018DD
:10050000024A84589C436118815010BD3018000085
:1005100010B5029CA400001911431943014A8150EF
:1005200010BDC0465018000092008018014A81504A
:100530007047C0461018000010B50122120383183E
:100540000C789C604B7883508978014A815010BDAB
:100550000C110000B0B51122120283580124A343EC
:1005600083500B888C781C438B882343094C1C4098
:100570008358094D1D40631983508B79CC791C43F6
:10058000097A21437E231940801842689A43511802
:100590004160B0BD18670000E798FDFF0D494018A5
:1005A00001684907FCD4C069C0B2704710B5012288
:1005B000120383180C789C604978815010BD0000AC
:1005C000044A801802681206FCD481610168C907D8
:1005D000FCD1704708110000F0B5C3B000F064FF13
:1005E000029000F061FF019000F05EFF054600F010
:1005F0005BFF074600F058FF044600F055FF00027D
:10060000041900F051FF0004241800F04DFF00060B
:100610002618701E000D0BD0FF24204600F04AFF64
:10062000204600F047FF204600F044FF204657E0F8
:100630000198000202994018290440183906401810
:1006400000210091CC43012109020191264F04E0D1
:10065000761B02982818002E34D001998E42354618
:1006600000D3019D03A902902A4600F073FD009873
:10067000014603E0401C81B28D42E9DD03AA525CD1
:1006800062405108D20700D079404A08C90700D01B
:100690007A405108D20700D079404A08C90700D0F3
:1006A0007A405108D20700D079404A08C90700D0E3
:1006B0007A405108D20700D079404C08C907D9D0F8
:1006C0007C40D7E7FF20A04300F0F4FEE443200A7B
:1006D000C0B200F0EFFE200CC0B200F0EBFE200E26
:1006E00000F0E8FE43B0F0BD2083B8EDB0B5B02017
:1006F00000F062FB102000F05FFB0025284600F0B0
:100700005BFB0024204600F085FB681C45B2002DF1
:10071000F7D5B12000F050FB102000F04DFB204633
:1007200000F04AFB0025284600F074FB601C44B230
:10073000002CF7D5B22000F03FFB102000F03CFB6E
:10074000284600F039FB0024204600F063FB681CBB
:1007500045B2002DF7D5B32000F02EFB102000F09D
:100760002BFB204600F028FB0025284600F052FB1A
:10077000601C44B2002CF7D5B42000F01DFB102003
:1007800000F01AFB284600F017FB0024204600F07A
:1007900041FB681C45B2002DF7D5B52000F00CFBDD
:1007A000102000F009FB204600F006FB002528463B
:1007B00000F030FB601C44B2002CF7D5B62000F0EE
:1007C000FBFA102000F0F8FA284600F0F5FA0024B1
:1007D000204600F01FFB681C45B2002DF7D5B7205E
:1007E00000F0EAFA102000F0E7FA204600F0E4FA00
:1007F000002000F00FFB601C44B2002CF8D5B0BD07
:10080000F0B581B0044600067D4E02D40820306168
:1008100001E00820306020252846FFF7DEFD042790
:1008200037602846FFF7D9FD37612846FFF7D5FD29
:10083000600602D40820306101E0082030602025E5
:100840002846FFF7CAFD37602846FFF7C6FD376127
:100850002846FFF7C2FDA00602D40820306101E05F
:100860000820306020252846FFF7B7FD376028466E
:10087000FFF7B3FD37612846FFF7AFFDE00602D46E
:100880000820306101E00820306020252846FFF76D
:10089000A4FD37602846FFF7A0FD37612846FFF723
:1008A0009CFD200702D40820306101E00820306060
:1008B00020252846FFF791FD37602846FFF78DFD7C
:1008C00037612846FFF789FD600702D408203061B0
:1008D00001E00820306020252846FFF77EFD3760C4
:1008E0002846FFF77AFD37612846FFF776FDA00717
:1008F00002D40820306101E008203060202528461D
:10090000FFF76BFD37602846FFF767FD3761284624
:10091000FFF763FDE00702D10820306101E0082005
:10092000306020242046FFF758FD37602046FFF74F
:1009300054FD37612046FFF750FD37602046FFF732
:100940004CFD37612046FFF748FD01B0F0BDC046C1
:10095000B0B5642000F070FD294D042028602024EB
:100960002046FFF73AFD082028602046FFF735FDB6
:10097000AE2000F021FAD52000F01EFA802000F011
:100980001BFAA82000F018FA3F2000F015FAD32037
:1009900000F012FA002000F00FFA402000F00CFAEC
:1009A000A12000F009FAC82000F006FADA2000F0D1
:1009B00003FA122000F000FA812000F0FDF9CF20A8
:1009C00000F0FAF9D92000F0F7F9F12000F0F4F97D
:1009D000DB2000F0F1F9302000F0EEF9A42000F067
:1009E000EBF9A62000F0E8F98D2000F0E5F91420DD
:1009F00000F0E2F9AF2000F0DFF9FFF777FEB0BDBD
:100A000090320A40D04908607047C046F0B59BB0AC
:100A1000431ED8B2FF24032800D992E1491EC8B270
:100A2000072800D98DE15F200002101880B2000A6B
:100A3000FF24562800D984E1D0B2A12800D280E159
:100A4000FF2800D17DE101930091110AA13989B2FB
:100A50005E224A43A13880B210184001BA490968A1
:100A600008180FAC2022214600F074FBA07B0E90EA
:100A7000207B0D90A07A0C90207A0B90A0790A90A0
:100A800020790990A078089020780790E07B069064
:100A9000607B0590E07A0490607A0390E0790290A0
:100AA0006679E0786478002110222CE0093A079DED
:100AB000D54001272F40089DD540ED07AD0FED191A
:100AC000099FD740FF077F0FED190A9FD740FF0707
:100AD0003F0FED190B9FD740FF07FF0EED190C9F3D
:100AE000D740FF07BF0EED190D9FD740FF077F0EC0
:100AF000EF190E9DD540EA013A4317AD6A54491CDF
:100B0000002B1A4627D0531E0829CFD32246DA409D
:100B1000012515400246DA40D207920F5219354698
:100B2000DD40ED076D0F5219029DDD40ED072D0FE1
:100B30005219039DDD40ED07ED0E5219049DDD4075
:100B4000ED07AD0E5219059DDD40ED076D0E5719ED
:100B5000069DDD40CFE701984100B0200191084398
:100B6000C0B200F029F9102400982043C0B20090D0
:100B700000F022F90025284600F01EF917AE307863
:100B800000F048F9707800F045F9B07800F042F9CB
:100B9000F07800F03FF9307900F03CF9707900F01E
:100BA00039F9B07900F036F9F07900F033F9307A9C
:100BB00000F030F9707A00F02DF9B07A00F02AF9DF
:100BC000F07A00F027F9307B00F024F9707B00F018
:100BD00021F9B07B00F01EF9F07B00F01BF90FA8A3
:100BE000817F0E91017F0D91817E0C91017E0B9191
:100BF000817D0A91017D0991817C0891017C079199
:100C0000C17F0691417F0591C17E0491417E039190
:100C1000C17D0291417DC27C437C2CE0093C079858
:100C2000E040012606400898E040C007800F801988
:100C3000099EE640F607760F80190A9EE640F60701
:100C4000360F80190B9EE640F607F60E80190C9EB3
:100C5000E640F607B60E80190D9EE640F607760EC2
:100C600086190E98E040C001304317AC60556D1CEA
:100C7000002F3C4627D0671E082DCFD31846F840DA
:100C8000012404401046F840C007800F00190C46AC
:100C9000FC40E407640F0019029CFC40E407240FA9
:100CA0000019039CFC40E407E40E0019049CFC407E
:100CB000E407A40E0019059CFC40E407640E061925
:100CC0000698F840CFE7B12001990143C8B200F07F
:100CD00073F8009800F070F80024204600F06CF8DB
:100CE00017AD287800F096F8687800F093F8A878A7
:100CF00000F090F8E87800F08DF8287900F08AF894
:100D0000687900F087F8A87900F084F8E87900F0B5
:100D100081F8287A00F07EF8687A00F07BF8A87AEB
:100D200000F078F8E87A00F075F8287B00F072F8A7
:100D3000687B00F06FF8A87B00F06CF8E87B00F0AF
:100D400069F860B21BB0F0BD04012020F0B585B099
:100D5000019204910290002B2AD01C46581E039049
:100D60000298401E0027C5B202E07F1CA7421FD098
:100D7000F8430121001905D003980A225143401E6F
:100D80008742FAD1032DF0D804983E18701EC0B2E5
:100D90000728EAD8019800F095FB0A21FFF7ECF943
:100DA0000A4604480243F1B20298FFF72FFEDCE73F
:100DB00005B0F0BDB0A30000F0B581B00090774E53
:100DC0000827376020242046FFF707FB04253560FD
:100DD0002046FFF702FB37612046FFF7FEFA356138
:100DE0002046FFF7FAFA7820FFF70AFD0020FFF708
:100DF00007FD0098FFF704FD37612046FFF7EDFA85
:100E000035602046FFF7E9FA37602046FFF7E5FA3C
:100E100001B0F0BDF0B581B00090604E082737609A
:100E200020242046FFF7D9FA042535602046FFF735
:100E3000D4FA37612046FFF7D0FA35612046FFF734
:100E4000CCFA7820FFF7DCFC4020FFF7D9FC0098B3
:100E5000FFF7D6FC37612046FFF7BFFA3560204622
:100E6000FFF7BBFA37602046FFF7B7FA01B0F0BDD5
:100E7000F0B53F4A8723136101218C063D48046089
:100E8000141F23600B0603603B4B5D1C3B4C256528
:100E90003B4D6E1C6665666D66651646143E812781
:100EA0003760A363E363374E266027682760666078
:100EB00066686660344EA664A76CA764E664E66C58
:100EC000E66417464C3F314E3E601746483F3E6051
:100ED0001746443F3E601746403F3E60A560A76806
:100EE000A7606561676967612564276C276465642D
:100EF000676C6764E562E76AE762E566E76EE76686
:100F00002567276F27676567676F67672566276EA1
:100F10002766E565E76DE765A565A76DA76553617C
:100F200015601468146053601C3A13600246303A2E
:100F30000F239B0313600246403AC906116014490F
:100F40000160803E1348016831430160FF20023098
:100F500011490A6A02430A620A6802430A602520AC
:100F600000050E4908610C220A600C300864F0BDCF
:100F7000DC804240D0120A408100020004804240DE
:100F800081000E008100050081000D00810001003C
:100F900000C0030890130A4028100A4090320A400B
:100FA0000D48002101600320C1430C48021F136853
:100FB0000B40136041680122914341601102426875
:100FC0008A434260016830229143016001680F2228
:100FD000914301607047C04608030B4004010B4079
:100FE00010B5124C12492046FFF7E0FA114920468D
:100FF000FFF7B0FA0320C1030F4802688A4302607A
:1010000001690E4A0A40911C016141690B220A43A1
:1010100034218A434261416801221140436893436D
:101020005918416001681143016010BD00801040F3
:10103000BA160000BC160000009110400000FFFF2F
:10104000F0B581B01C4C1D492046FFF775FA1C49CC
:101050002046FFF7C7F91B4801681B4A0A40026097
:1010600000250095204629462A462B46FFF750FAD0
:10107000204629462A46FFF73DFA144E20463146BF
:101080002A46FFF751FA01270097204629462A46AB
:101090002B46FFF73DFA204629463A46FFF72AFA43
:1010A000204631463A46FFF73FFA09488760032158
:1010B000016001B0F0BDC04600A08640C616000029
:1010C000CC16000004B886407F00FFFFE903000053
:1010D00000B1864080B500F00FF8FFF7C9FEFFF7BA
:1010E0005FFFFFF7ADFFFFF77BFF9C200149002268
:1010F0000A5480BD6000202010B5094809494160AC
:10110000094A5160094B5960094C61600949016005
:101110001160196021601020FFF75FF910BDC04613
:1011200000080A40030000B100280A4000A88640D9
:10113000008810400100002680B50120C106654AE4
:1011400011604106644A11600105116000F074F9F4
:1011500080BDC046F0B58BB003920291099001208A
:10116000C1065C4A0091116105055B4F3D60103F6F
:1011700044063C6020263046FFF72FF9AC48006853
:10118000554804603046FFF728F9534805603C6035
:101190003046FFF722F9A64800684F480460304601
:1011A000FFF71BF94C4805603C603046FFF715F926
:1011B0009F480068484804603046FFF70EF94648EB
:1011C00005603C603046FFF708F9994800684248DE
:1011D00004603046FFF701F93F4805603C60304647
:1011E000FFF7FBF8924800683B4804603046FFF781
:1011F000F4F8394805603C603046FFF7EEF88C485B
:101200000068354804603046FFF7E7F83D603C6011
:101210003046FFF7E2F8864800682F480460304601
:10122000FFF7DBF806953D6005973C603046FFF719
:10123000D4F87F4800680794274804603046FFF7D9
:10124000CCF80AA8099A8270110A4170110C017039
:10125000032100F043F80398002836D000200190C5
:101260000146079F06E0029804994254491C0398DE
:1012700081422AD00491FF250198044602461AE0D3
:10128000069808600598076020263046FFF7A5F805
:10129000674800680890104807603046FFF79DF8DF
:1012A0000998400008998901C90F0A18601C6D004F
:1012B000072C0446D7D268B2002807490992DFD527
:1012C0000698059A10601046DDE70098014908600D
:1012D0000BB0F0BD90120A40A0320A40F0B583B0C6
:1012E000002900D1A2E00F4601210A0502924C0616
:1012F000504D12E002982861009F2C602026304655
:10130000FFF76BF84A4800682C613046FFF765F834
:101310000198401C7F1E00D188E0017849B2002965
:101320000097019002D40298286101E00298286099
:10133000CFB22C6020263046FFF74FF83C480068BB
:101340002C613046FFF749F8780602D402982861EC
:1013500001E0029828602C6020263046FFF73DF817
:10136000334800682C613046FFF737F8B80602D4DE
:101370000298286101E0029828602C6020263046FF
:10138000FFF72BF82A4800682C613046FFF725F854
:10139000F80602D40298286101E0029828602C60C7
:1013A00020263046FFF719F8214800682C613046A6
:1013B000FFF713F8380702D40298286101E0029879
:1013C00028602C6020263046FFF707F81848006890
:1013D0002C613046FFF701F8780702D402982861A3
:1013E00001E0029828602C6020263046FEF7F5FFC9
:1013F0000F4800682C613046FEF7EFFFB80702D4B3
:101400000298286101E0029828602C60202630466E
:10141000FEF7E3FF064800682C613046FEF7DDFF6B
:10142000F80700D166E70298286065E703B0F0BDD1
:1014300080130A4090320A4010B504467D20000215
:10144000FEF7CBFF601E21040446F7D110BD00005B
:10145000FFF740FEFFF770FEFFF77AFA7D20C0002D
:10146000FFF7EAFF0020FFF7CDFAFFF73FF90C4C3A
:101470000C4D02E01420FFF7DFFF2878401C287095
:10148000C2B2032005210423FFF760FC2068400757
:10149000F0D4E069C0B25628ECD1FFF79DF8E9E737
:1014A000089110400001202080B50548FFF776F82C
:1014B00080BDC04680B501460148FFF781F880BD78
:1014C0000080104043088B421AD3002203098B424C
:1014D00079D3030A8B425ED3030B8B4242D3030CB6
:1014E0008B4227D30902FF2212BA030C8B4202D38C
:1014F0001212090203D0030B8B4233D31AE0D3E05C
:10150000411A8041401C704703460B4371D4430885
:101510008B42F5D3002203098B4254D3030A8B423A
:1015200039D3030B8B421DD3030C8B4202D3944659
:101530006EE0090AC30B8B4201D3CB03C01A5241A0
:10154000830B8B4201D38B03C01A5241430B8B4256
:1015500001D34B03C01A5241030B8B4201D30B033F
:10156000C01A5241C30A8B4201D3CB02C01A524166
:10157000830A8B4201D38B02C01A5241430A8B4229
:1015800001D34B02C01A5241030A8B4201D30B0212
:10159000C01A5241CDD2C3098B4201D3CB01C01A2C
:1015A000524183098B4201D38B01C01A5241430936
:1015B0008B4201D34B01C01A524103098B4201D324
:1015C0000B01C01A5241C3088B4201D3CB00C01A91
:1015D000524183088B4201D38B00C01A5241430809
:1015E0008B4201D34B00C01A5241411A52411000A4
:1015F0007047CA0F00D04942031000D34042534005
:1016000000229C4603098B422DD3030A8B4212D33E
:101610008901FC2212BA030A8B420CD38901921170
:101620008B4208D3890192118B4204D3890137D0B0
:10163000921100E08909C3098B4201D3CB01C01A82
:10164000524183098B4201D38B01C01A5241430995
:101650008B4201D34B01C01A524103098B4201D383
:101660000B01C01A5241C3088B4201D3CB00C01AF0
:10167000524183088B4201D38B00C01A5241D9D208
:1016800043088B4201D34B00C01A5241411A00D289
:1016900001465241104663465B1000D340427047FA
:1016A00063465B1000D3404201B50021004201D0E7
:1016B000C9430846C046C04602BD080700001800DE
:1016C000000000300000080700000000E9030000EF
:1016D0000001000000000000E816000000002020CB
:0816E0000805000008010000EC
:04000005000000C136
:00000001FF
